:04000000803185289E
:100008007E1480310B1D09280A2859280B1120005D
:100018004614603095000130F0007008DD070430A8
:100028005D02031C182819285928DD01DE01471C28
:100038001E281F28592847102008F00070082100A2
:10004800AA0020002108F00070082100AB00200061
:100058002208F00070082100AC0020002308F000FE
:1000680070082100AD0020002408F000700821006D
:10007800AE0020002508F00070082100AF00200025
:100088002608F00070082100B00020002708F000C2
:1000980070082100B1002000C614A001A101A2012E
:1000A800A301A401A501A601A7012000911E5D28B6
:1000B8005E288328911223009D1C632864286928E0
:1000C8001D120032003223001D161908F0007008B6
:1000D8002000D200DD015208F0005E08203E8600B4
:1000E8008701700881000130F0007008DE070830D1
:1000F8005E02031C802881288228DE0147147E10B6
:10010800090080318728FB012030840000308500F9
:10011800453085311F258031A030840000308500AE
:100128003C3085311F2580317E10200080319C288D
:1001380006302000EA003030890BA028EA0BA028FE
:1001480000007A302100990068302000EA00E4308D
:10015800890BAC28EA0BAC28000023008E018C0127
:100168008D017F3021008E00FF308C00FF308D0024
:10017800FF3022008C007F308E00FF308D008431EC
:10018800F12480318531152580312000DC01DC0A1D
:1001980022008E1785310B25803106302000EA00B9
:1001A8006A08F100C8308331DD2380312000D50191
:1001B800D50A2000461CE128E228DD28461055080B
:1001C8008231B12280311E3020005806031DED28EF
:1001D800EE2824295503031DF228F3282429013089
:1001E800EA006A08D7070A305702031CFC28FD28D2
:1001F8002F29D7010030F4000030F3000030F2005E
:100208000A30F1002D08F8002C08F7002B08F6003A
:100218002A08F50083311123803174082100BF00BA
:100228007308BE007208BD007108BC0000302000D1
:10023800AD000030AC000030AB000030AA002F2920
:100248000310C61D031403182A292D292000C615DA
:100258002F292000C6110D30EA006A082100CC00C1
:100268000A302000EA006A082100CD00063020008C
:10027800EA006A08F100C8308331DD2380312000AC
:10028800B901210048082000EA006A08B8002100E6
:1002980049082000EA006A08B70021004A0820003F
:1002A800EA006A08B6000030F4002830F300003095
:1002B800F2000030F1003608EA003708EB00380891
:1002C800EC003908ED000A30EA35EB0DEC0DED0DC8
:1002D800890B68296D08F8006C08F7006B08F600B0
:1002E8006A08F50083311123803174082000B100B9
:1002F8007308B0007208AF007108AE002E08C83E3F
:10030800BE0000302F3DBF000030F100F200143075
:10031800F3000030F400C83082310D2280310A30F9
:100328002000E5000030E6006430F1000030F20003
:100338003F08F4003E08F30083316C2380317208D3
:100348002000E8007108E7008331A82380312000ED
:100358006508303EEA006A082100C8000A3020001B
:10036800E5000030E6000A30F1000030F2003F08F6
:10037800F4003E08F30083316C23803172082000BA
:10038800E8007108E7008331A82380312000650860
:10039800303EEA006A082100C9000A302000E50062
:1003A8000030E6003F08E8003E08E7008331A82354
:1003B800803120006508303EEA006A082100CA0042
:1003C80030302000EA006A082100CB000D30200000
:1003D800EA006A082100CC000A302000EA006A0816
:1003E8002100CD0006302000EA006A08F100C8307C
:1003F8008331DD2380310030F100F2001430F30046
:100408000030F400C83082310D228031DD2880317F
:100418008528F9007908F5007508FA00730874044E
:10042800031D172A182A192AB02A7108F5007A0814
:1004380086008701750881007108F50073087A073E
:10044800F6007608FF3E86008701750881000030B7
:1004580074020330031973020318332A342A352A25
:10046800B02A7108F5007A0A8600870175088100AC
:100478007108F5007A08023E860087017508810038
:100488007108F50073087A07F6007608FE3E8600C4
:100498008701750881007108F50073087A07F6006E
:1004A8007608FD3E860087017508810000307402D9
:1004B8000730031973020318622A632A642AB02AD0
:1004C8007108F5007A08033E8600870175088100E7
:1004D8007108F50073087A07F6007608FC3E860076
:1004E800870175088100003074020930031973020E
:1004F80003187F2A802A812AB02A7A09F5007B0905
:10050800F600F50A0319F60A03307505F7000030FE
:100518007605F8007708F5007508FA077708F302FA
:100528007808F43BFC30F305FF30F405AA2A71087B
:10053800F5007A0886008701750881000130F3020A
:100548000030F43B0130F5007508FA0773087404AD
:10055800031DAF2AB02A9B2A0800F5008431BD2468
:100568008231D03084314E2482317503031DBD2A77
:10057800BE2AC32A9E3084314E248231CD2A0230CD
:100588007506031DC82AC92ACD2ABE3084314E24D7
:1005980082318431D7248231D13084314E24823162
:1005A80084310A248231F40074082100C800FE3026
:1005B8004802031CE02AE12AE72A48080139F40026
:1005C8007408C800EC2A4808023EF4007408C80001
:1005D80084318824823184310A248231F4007408F9
:1005E8002100C90084318824823184310A2482316F
:1005F800F40074082100CA008431882482318431CF
:100608000A248231F40074082000D80084316D2453
:1006180082318431A3248231080000302000E800B0
:100628000030E7000030E6000030E500740873048D
:10063800720471040319212B222B632BE901E90AA7
:10064800302B0130F135F20DF30DF40D890B262B0B
:100658000130F9007908E907F41F332B342B252BD7
:100668000130E535E60DE70DE80D890B352B7408EB
:100678007802031D492B73087702031D492B720862
:100688007602031D492B71087502031C4C2B4D2B58
:10069800562B7108F5027208F63B7308F73B74088D
:1006A800F83B65140130F436F30CF20CF10C890BAD
:1006B800572B0130E902031D622B632B342B68088A
:1006C800F4006708F3006608F2006508F100080006
:1006D800F601F701710872040319732B742BA32B0D
:1006E800F801F80A802B0130F135F20D890B782BCF
:1006F8000130F5007508F807F21F832B842B772B40
:100708000130F635F70D890B852B72087402031D2D
:100718008F2B71087302031C922B932B982B710853
:10072800F3027208F43B76140130F236F10C890BAF
:10073800992B0130F802031DA22BA32B842B7708D9
:10074800F2007608F1000800200065086604031925
:10075800AE2BAF2BD82BFA01FA0ABB2B0130E535AB
:10076800E60D890BB32B0130F9007908FA07E61F6B
:10077800BE2BBF2BB22B66086802031DC52B65086C
:100788006702031CC82BC92BCD2B6508E702660836
:10079800E83B0130E636E50C890BCE2B0130FA0236
:1007A800031DD72BD82BBF2B6808E6006708E50088
:1007B8000800F300042C7308860087010108230051
:1007C8009A000130F1020130F2007208F3072000AC
:1007D800D101FF2BA0300032890BEF2B0130F20042
:1007E80072082000D10765305102031CFC2BFD2B39
:1007F800FF2BD101042C23009E1C032C042CEE2B70
:100808007108031D082C092CDF2B080024009615FD
:10081800FB011E2C0130F2007208FB078530890BA2
:10082800132C000065307B02031C1B2C1C2C1E2C77
:10083800FB01232C2400141C222C232C0E2C240016
:100848001108F2007208F30084312D2484317308F2
:100858000800FB013F2C0130F1007108FB078530CF
:10086800890B342C000065307B02031C3C2C3D2C8A
:100878003F2CFB014D2C1F3024001605F1001F30C2
:1008880071060319482C492C2F2C14194C2C4D2C6B
:100898002F2C0800F300730824009100FB01642C3E
:1008A8000130F2007208FB078530890B592C0000D3
:1008B80065307B02031C612C622C642CFB01692CC3
:1008C80024001418682C692C542C84312D2484316C
:1008D8000800240096161616FB01822C0130F10040
:1008E8007108FB074230890B772C003265307B0298
:1008F800031C7F2C802C822CFB01872C2400161AC9
:10090800862C872C722C0800240096121616FB01E0
:100918009D2C0130F1007108FB074230890B922CA5
:10092800003265307B02031C9A2C9B2C9D2CFB010A
:10093800A22C2400161AA12CA22C8D2C080024000D
:100948001615FB01B72C0130F1007108FB07423086
:10095800890BAC2C003265307B02031CB42CB52CFF
:10096800B72CFB01BC2C24001619BB2CBC2CA72CC3
:10097800080024001614FB01D12C0130F100710885
:10098800FB074230890BC62C003265307B02031C02
:10099800CE2CCF2CD12CFB01D62C24001618D52C0C
:1009A800D62CC12C080024009614FB01EB2C013036
:1009B800F1007108FB074230890BE02C00326530EA
:1009C8007B02031CE82CE92CEB2CFB01F02C240007
:1009D8009618EF2CF02CDB2C08008B170B17210036
:1009E8009116200091128531002584312030230092
:1009F8009E0090309D00080023009F0100309C005D
:100A080019309B008D0121008D168D1308008B175E
:100A18000B178B160B1187302100950020009501CC
:100A2800080021000D160D17240094172830950092
:100A3800C73092000800640080010131890B202D25
:020A4800003478
:020000040001F9
:08000000FF3FFF3FFF3FFF3F00
:04000E00A43FFF3FCD
:00000001FF
