:04000000803185289E
:100008007E1480310B1D09280A2859280B1120005D
:100018004214603095000130F0007008D5070430B4
:100028005502031C182819285928D501D601431C44
:100038001E281F28592843102008F00070082100A6
:10004800AA0020002108F00070082100AB00200061
:100058002208F00070082100AC0020002308F000FE
:1000680070082100AD0020002408F000700821006D
:10007800AE0020002508F00070082100AF00200025
:100088002608F00070082100B00020002708F000C2
:1000980070082100B1002000C214A001A101A20132
:1000A800A301A401A501A601A7012000911E5D28B6
:1000B8005E288328911223009D1C632864286928E0
:1000C8001D120032003223001D161908F0007008B6
:1000D8002000CE00D5014E08F0005608203E8600CC
:1000E8008701700881000130F0007008D6070830D9
:1000F8005602031C802881288228D60143147E10CA
:10010800090080318728853124258031E600853132
:1001180025258031E700853126258031E8008531A5
:1001280027258031E900FB0120308400003085005C
:100138003D3085311E258031A03084000030850097
:10014800283085311E2580317E1020008031AC2872
:1001580006302000E2003030890BB028E20BB028CE
:1001680000007A302100990068302000E200E43075
:10017800890BBC28E20BBC28000023008E018C01EF
:100188008D017F3021008E00FF308C00FF308D0004
:10019800FF3022008C007F308E00FF308D008431CC
:1001A800EA24803185310E2580312000D401D40A1B
:1001B80022008E178531042580311830F1008530F2
:1001C800F200B43084312724803106302000E20068
:1001D8006208F100B4308331B62380312000421C1C
:1001E800F628F728F2284210013082317F22803128
:1001F8000D302000E20062082100B8000A3020001B
:10020800E20062082100B90006302000E20062081E
:10021800F100B4308331B62380312000B5012100CC
:1002280034082000E2006208B400210035082000EC
:10023800E2006208B300210036082000E2006208EC
:10024800B2000030F4002830F3000030F200003033
:10025800F1003208E2003308E3003408E40035080E
:10026800E5000A30E235E30DE40DE50D890B36298A
:100278006508F8006408F7006308F6006208F500EE
:100288008231EA22803174082000AD007308AC0086
:100298007208AB007108AA002A08C83EBA000030EC
:1002A8002B3DBB000030F100F2001430F3000030A9
:1002B800F400B4308131DB2180310A302000DD00C8
:1002C8000030DE006430F1000030F2003B08F4003A
:1002D8003A08F30083314523803172082000E0009A
:1002E8007108DF0083318123803120005D08303EB2
:1002F800E20062082100B4000A302000DD0000306E
:10030800DE000A30F1000030F2003B08F4003A0841
:10031800F30083314523803172082000E000710822
:10032800DF0083318123803120005D08303EE20008
:1003380062082100B5000A302000DD000030DE0030
:100348003B08E0003A08DF00833181238031200038
:100358005D08303EE20062082100B600303020001F
:10036800E20062082100B7000D302000E2006208B8
:100378002100B8000A302000E20062082100B9001C
:1003880006302000E2006208F100B4308331B62361
:1003980080310030F100F2001430F3000030F40036
:1003A800B4308131DB218031F22880318528F90091
:1003B8007908F5007508FA0073087404031DE52927
:1003C800E629E7297E2A7108F5007A088600870160
:1003D800750881007108F50073087A07F600760839
:1003E800FF3E8600870175088100003074020330E3
:1003F800031973020318012A022A032A7E2A7108A4
:10040800F5007A0A86008701750881007108F500F1
:100418007A08023E86008701750881007108F50098
:1004280073087A07F6007608FE3E8600870175088D
:1004380081007108F50073087A07F6007608FD3E1A
:10044800860087017508810000307402073003199F
:1004580073020318302A312A322A7E2A7108F500DD
:100468007A08033E86008701750881007108F50047
:1004780073087A07F6007608FC3E8600870175083F
:1004880081000030740209300319730203184D2AE1
:100498004E2A4F2A7E2A7A09F5007B09F600F50ACA
:1004A8000319F60A03307505F70000307605F800E1
:1004B8007708F5007508FA077708F3027808F43B1F
:1004C800FC30F305FF30F405782A7108F5007A0846
:1004D80086008701750881000130F3020030F43B83
:1004E8000130F5007508FA0773087404031D7D2AA6
:1004F8007E2A692A08008431B6248231D0308431BA
:10050800472482312000C21D8A2A8B2A902A9E30D5
:10051800843147248231942ABE3084314724823181
:100528008431D0248231D1308431472482318331DF
:10053800E3238231F40074082100B400FE30340251
:10054800031CA72AA82AAE2A34080139F400740823
:10055800B400B32A3408023EF4007408B4008431AD
:10056800812482318331E3238231F400740821002D
:10057800B5008431812482318331E3238231F40050
:1005880074082100B6008431812482318331E32349
:100598008231F40074082100B70084316624823166
:1005A80084319C2482312100B71FDB2ADC2ADD2A12
:1005B800E92A03102000C21D03140318E42AE72ABD
:1005C8002000C215E92A2000C211080000302000CE
:1005D800E0000030DF000030DE000030DD0074088D
:1005E8007304720471040319FA2AFB2A3C2BE101F3
:1005F800E10A092B0130F135F20DF30DF40D890BE9
:10060800FF2A0130F9007908E107F41F0C2B0D2BA4
:10061800FE2A0130DD35DE0DDF0DE00D890B0E2BD6
:1006280074087802031D222B73087702031D222BFE
:1006380072087602031D222B71087502031C252BF4
:10064800262B2F2B7108F5027208F63B7308F73B2F
:100658007408F83B5D140130F436F30CF20CF10C1D
:10066800890B302B0130E102031D3B2B3C2B0D2B5A
:100678006008F4005F08F3005E08F2005D08F1000E
:100688000800F601F7017108720403194C2B4D2B71
:100698007C2BF801F80A592B0130F135F20D890B42
:1006A800512B0130F5007508F807F21F5C2B5D2B04
:1006B800502B0130F635F70D890B5E2B720874024A
:1006C800031D682B71087302031C6B2B6C2B712B99
:1006D8007108F3027208F43B76140130F236F10C1B
:1006E800890B722B0130F802031D7B2B7C2B5D2BB1
:1006F8007708F2007608F100080020005D085E0423
:100708000319872B882BB12BFA01FA0A942B013095
:10071800DD35DE0D890B8C2B0130F9007908FA07DD
:10072800DE1F972B982B8B2B5E086002031D9E2BD8
:100738005D085F02031CA12BA22BA62B5D08DF021C
:100748005E08E03B0130DE36DD0C890BA72B01305B
:10075800FA02031DB02BB12B982B6008DE005F084E
:10076800DD000800F300DD2B73088600870101080F
:1007780023009A000130F1020130F2007208F307F9
:100788002000CD01D82BA0300032890BC82B0130B6
:10079800F20072082000CD0765304D02031CD52BEE
:1007A800D62BD82BCD01DD2B23009E1CDC2BDD2B7B
:1007B800C72B7108031DE12BE22BB82B080024007E
:1007C8009615FB01F72B0130F2007208FB07853004
:1007D800890BEC2B000065307B02031CF42BF52BF6
:1007E800F72BFB01FC2B2400141CFB2BFC2BE72B09
:1007F80024001108F2007208F300843106248331C2
:1008080073080800FB01182C0130F1007108FB0780
:100818008530890B0D2C000065307B02031C152CDC
:10082800162C182CFB01262C1F3024001605F1006D
:100838001F3071060319212C222C082C1419252C81
:10084800262C082C0800F8007208F6007108F5003C
:100858007808F3007308F700770886008701F70A1D
:100868007608F4007508F300F50A0319F60A730808
:100878008400740885000008C03F8908031D452CC2
:10088800462C302C0800F300730824009100FB016B
:100898005D2C0130F2007208FB078530890B522C61
:1008A800000065307B02031C5A2C5B2C5D2CFB017D
:1008B800622C24001418612C622C4D2C84310624DF
:1008C80084310800240096161616FB017B2C013093
:1008D800F1007108FB074230890B702C003265303B
:1008E8007B02031C782C792C7B2CFB01802C2400A8
:1008F800161A7F2C802C6B2C0800240096121616D2
:10090800FB01962C0130F1007108FB074230890B7E
:100918008B2C003265307B02031C932C942C962C74
:10092800FB019B2C2400161A9A2C9B2C862C080061
:1009380024001615FB01B02C0130F1007108FB07EB
:100948004230890BA52C003265307B02031CAD2C8C
:10095800AE2CB02CFB01B52C24001619B42CB52CE8
:10096800A02C080024001614FB01CA2C0130F10049
:100978007108FB074230890BBF2C003265307B02BF
:10098800031CC72CC82CCA2CFB01CF2C240016181A
:10099800CE2CCF2CBA2C080024009614FB01E42C92
:1009A8000130F1007108FB074230890BD92C003265
:1009B80065307B02031CE12CE22CE42CFB01E92CC2
:1009C80024009618E82CE92CD42C08008B170B1758
:1009D80021009116200091128431F92484312030AD
:1009E80023009E0090309D00080023009F010030E6
:1009F8009C0019309B008D0121008D168D13080075
:100A08008B170B178B160B118730210095002000D0
:100A18009501080021000D160D17240094172830A1
:100A28009500C730920008006B3475346E34613419
:100A38006C340034640080010131890B1F2D0034AF
:080A4800FF34023404340534CC
:020000040001F9
:08000000FF3FFF3FFF3FFF3F00
:04000E00A43FFF3FCD
:00000001FF
