:04000000803185289E
:100008007E1480310B1D09280A2859280B1120005D
:100018004214603095000130F0007008D4070430B5
:100028005402031C182819285928D401D501431C47
:100038001E281F28592843102008F00070082100A6
:10004800AA0020002108F00070082100AB00200061
:100058002208F00070082100AC0020002308F000FE
:1000680070082100AD0020002408F000700821006D
:10007800AE0020002508F00070082100AF00200025
:100088002608F00070082100B00020002708F000C2
:1000980070082100B1002000C214A001A101A20132
:1000A800A301A401A501A601A7012000911E5D28B6
:1000B8005E288328911223009D1C632864286928E0
:1000C8001D120032003223001D161908F0007008B6
:1000D8002000CE00D4014E08F0005508203E8600CE
:1000E8008701700881000130F0007008D5070830DA
:1000F8005502031C802881288228D50143147E10CC
:10010800090080318728853133258031E500853124
:1001180034258031E600853135258031E700853189
:1001280036258031E800FB0120308400003085004E
:100138003C3085312D258031A03084000030850089
:10014800283085312D2580317E1020008031AC2863
:1001580006302000E1003030890BB028E10BB028D0
:1001680000007A302100990068302000E100E43076
:10017800890BBC28E10BBC28000023008E018C01F0
:100188008D017F3021008E00FF308C00FF308D0004
:10019800FF3022008C007F308E00FF308D008431CC
:1001A800F924803185311D2580312000D301D30AFF
:1001B80022008E178531132580312730F1008530D4
:1001C800F200B43084313624803106302000E1005A
:1001D8006108F100B4308331C52380312000421C0E
:1001E800F628F728F228421003302000E2000830F1
:1001F800E1007730890BFE28E10BFE28E20BFE2890
:1002080082318A2280310D302000E100610821000E
:10021800B8000A302000E10061082100B90006306A
:100228002000E1006108F100B4308331C52380313A
:100238002000B501210034082000E1006108B40065
:10024800210035082000E1006108B30021003608CC
:100258002000E1006108B2000030F4002830F3000B
:100268000030F2000030F1003208E1003308E2000B
:100278003408E3003508E4000A30E135E20DE30D07
:10028800E40D890B41296408F8006308F700620847
:10029800F6006108F5008231F922803174082000E7
:1002A800AD007308AC007208AB007108AA002A08F8
:1002B800C83EBA0000302B3DBB000030F100F20010
:1002C8001430F3000030F400B4308131E62180317D
:1002D8000A302000DC000030DD006430F10000301E
:1002E800F2003B08F4003A08F300833154238031CC
:1002F80072082000DF007108DE008331902380310E
:1003080020005C08303EE10061082100B4000A309A
:100318002000DC000030DD000A30F1000030F2007F
:100328003B08F4003A08F300833154238031720803
:100338002000DF007108DE00833190238031200027
:100348005C08303EE10061082100B5000A30200059
:10035800DC000030DD003B08DF003A08DE008331B6
:100368009023803120005C08303EE10061082100C4
:10037800B60030302000E10061082100B7000D30E0
:100388002000E10061082100B8000A302000E100E7
:1003980061082100B90006302000E1006108F10081
:1003A800B4308331C52380310030F100F2001430BD
:1003B800F3000030F400B4308131E6218031F228B6
:1003C80080318528F9007908F5007508FA00730866
:1003D8007404031DF029F129F229892A7108F5000E
:1003E8007A0886008701750881007108F50073088E
:1003F8007A07F6007608FF3E8600870175088100B7
:100408000030740203300319730203180C2A0D2AF2
:100418000E2A892A7108F5007A0A8600870175086C
:1004280081007108F5007A08023E86008701750888
:1004380081007108F50073087A07F6007608FE3E19
:1004480086008701750881007108F50073087A072E
:10045800F6007608FD3E86008701750881000030A9
:10046800740207300319730203183B2A3C2A3D2AF9
:10047800892A7108F5007A08033E86008701750805
:1004880081007108F50073087A07F6007608FC3ECB
:10049800860087017508810000307402093003194D
:1004A80073020318582A592A5A2A892A7A09F50000
:1004B8007B09F600F50A0319F60A03307505F700FB
:1004C80000307605F8007708F5007508FA07770810
:1004D800F3027808F43BFC30F305FF30F405832A77
:1004E8007108F5007A0886008701750881000130D7
:1004F800F3020030F43B0130F5007508FA07730881
:100508007404031D882A892A742A08008431C524A2
:100518008231D0308431562482312000C21D952A80
:10052800962A9B2A9E30843156248231A32ABE30D3
:100538008431562482319E3084315624823184316C
:10054800DF248231D1308431562482318331F22341
:100558008231F40074082100B400FE303402031C18
:10056800B62AB72ABD2A34080139F4007408B40041
:10057800C22A3408023EF4007408B400843190247E
:1005880082318331F2238231F40074082100B500EE
:100598008431902482318331F2238231F40074084B
:1005A8002100B6008431902482318331F2238231D4
:1005B800F40074082100B700843175248231843135
:1005C800AB2482312100B71FEA2AEB2AEC2AF82A49
:1005D80003102000C21D03140318F32AF62A200072
:1005E800C215F82A2000C211080000302000DF00E0
:1005F8000030DE000030DD000030DC0074087304D9
:10060800720471040319092B0A2B4B2BE001E00A31
:10061800182B0130F135F20DF30DF40D890B0E2B6B
:100628000130F9007908E007F41F1B2B1C2B0D2B58
:100638000130DC35DD0DDE0DDF0D890B1D2B740857
:100648007802031D312B73087702031D312B7208C2
:100658007602031D312B71087502031C342B352BD0
:100668003E2B7108F5027208F63B7308F73B7408D5
:10067800F83B5C140130F436F30CF20CF10C890BE6
:100688003F2B0130E002031D4A2B4B2B1C2B5F082C
:10069800F4005E08F3005D08F2005C08F100080051
:1006A800F601F7017108720403195B2B5C2B8B2B85
:1006B800F801F80A682B0130F135F20D890B602B2F
:1006C8000130F5007508F807F21F6B2B6C2B5F2BB8
:1006D8000130F635F70D890B6D2B72087402031D76
:1006E800772B71087302031C7A2B7B2B802B7108E4
:1006F800F3027208F43B76140130F236F10C890BE0
:10070800812B0130F802031D8A2B8B2B6C2B770869
:10071800F2007608F100080020005C085D04031967
:10072800962B972BC02BFA01FA0AA32B0130DC3544
:10073800DD0D890B9B2B0130F9007908FA07DD1FC5
:10074800A62BA72B9A2B5D085F02031DAD2B5C0817
:100758005E02031CB02BB12BB52B5C08DE025D08D2
:10076800DF3B0130DD36DC0C890BB62B0130FA0299
:10077800031DBF2BC02BA72B5F08DD005E08DC0024
:100788000800F300EC2B730886008701010823009A
:100798009A000130F1020130F2007208F3072000DC
:1007A800CD01E72BA0300032890BD72B0130F200A6
:1007B80072082000CD0765304D02031CE42BE52BA1
:1007C800E72BCD01EC2B23009E1CEB2BEC2BD62B1F
:1007D8007108031DF02BF12BC72B08002400961578
:1007E800FB01062C0130F2007208FB078530890BEB
:1007F800FB2B000065307B02031C032C042C062C09
:10080800FB010B2C2400141C0A2C0B2CF62B2400A7
:100818001108F2007208F30084311524833173083B
:100828000800FB01272C0130F1007108FB07853017
:10083800890B1C2C000065307B02031C242C252C02
:10084800272CFB01352C1F3024001605F1001F3022
:1008580071060319302C312C172C1419342C352C13
:10086800172C0800F8007208F6007108F5007808DF
:10087800F3007308F700770886008701F70A7608FF
:10088800F4007508F300F50A0319F60A73088400E2
:10089800740885000008C03F8908031D542C552C96
:1008A8003F2C0800F300730824009100FB016C2C16
:1008B8000130F2007208FB078530890B612C0000BB
:1008C80065307B02031C692C6A2C6C2CFB01712C93
:1008D80024001418702C712C5C2C8431152484315C
:1008E8000800240096161616FB018A2C0130F10028
:1008F8007108FB074230890B7F2C003265307B0280
:10090800031C872C882C8A2CFB018F2C2400161A98
:100918008E2C8F2C7A2C0800240096121616FB01B8
:10092800A52C0130F1007108FB074230890B9A2C85
:10093800003265307B02031CA22CA32CA52CFB01E2
:10094800AA2C2400161AA92CAA2C952C08002400DD
:100958001615FB01BF2C0130F1007108FB0742306E
:10096800890BB42C003265307B02031CBC2CBD2CD7
:10097800BF2CFB01C42C24001619C32CC42CAF2C8B
:10098800080024001614FB01D92C0130F10071086D
:10099800FB074230890BCE2C003265307B02031CEA
:1009A800D62CD72CD92CFB01DE2C24001618DD2CD4
:1009B800DE2CC92C080024009614FB01F32C01300E
:1009C800F1007108FB074230890BE82C00326530D2
:1009D8007B02031CF02CF12CF32CFB01F82C2400D7
:1009E8009618F72CF82CE32C08008B170B1721000E
:1009F800911620009112853108258431203023007A
:100A08009E0090309D00080023009F0100309C004C
:100A180019309B008D0121008D168D1308008B174E
:100A28000B178B160B1187302100950020009501BC
:100A3800080021000D160D17240094172830950082
:100A4800C730920008006B3475346E3461346C34EE
:100A58000034640080010131890B2E2D0034FF34ED
:060A6800023404340534E1
:020000040001F9
:08000000FF3FFF3FFF3FFF3F00
:04000E00A43FFF3FCD
:00000001FF
